:1008000018A3FCF8AC231E0E1926BFFBEBB417117E
:1008100018A3FCF8AC231E0E1926BFFBEBB417116E
:100820000117A8FAF7920D013C18080891EFC19042
:10083000003020FFFEA00000000070FFBA344080AE
:10084000000070FFBA3400000000003778F8B601ED
:100850000000003778F8B60100001B3C7C56010010
:10086000000001021C3C7B5800001B3C7C56010030
:100870000000003778F8B601000070FFBA340000BD
:10088000000070FFBA34408000001B3C7C56010021
:080890000000003778F8B60102
:0309FC00010A00ED
:100985001209CB1209F7E4F50BE50B250A900800CF
:1009950093FD7C00AF0B1209A9050BE50BC3940869
:0409A50040E780E2C5
:03000B00020924C3
:04092400C0E0C0D09F
:10092800758A18758CFC0509E50970020508C394D9
:10093800E8E5089403401475080075090074082553
:0B0948000AF50AD394904003750A00E2
:05095300D0D0D0E0321D
:1009E200EF1FAC0670011E4C600A7D027CEFDCFE3C
:0409F200DDFC80ECBC
:0109F60022DE
:02095800AD07E9
:10095A00E4FB74807E00A803088006CEA2E713CECB
:10096A0013D8F8FFEDF582EF558224FF92B4D2B680
:0A097A00C2B60BBB08DCD2B5C2B553
:010984002250
:0509F700C2B6C2B522EA
:0209A900AA079B
:1009AB00AF05120958AF027480A807088002C31361
:0F09BB00D8FCF4F5807F017E001209E27580FF01
:0109CA00220A
:1009CB005389F0438901758A18758CFCC28DD28CC2
:0709DB00D2A9D2AFC2B9227C
:030000000208985B
:0C089800787FE4F6D8FD75810C0208DFC3
:1008A400020985E493A3F8E493A34003F68001F2DC
:1008B40008DFF48029E493A3F85407240CC8C33355
:1008C400C4540F4420C8834004F456800146F6DF24
:1008D400E4800B01020408102040809009FCE47EAF
:1008E400019360BCA3FF543F30E509541FFEE49319
:1008F400A360010ECF54C025E060A840B8E493A3E0
:10090400FAE493A3F8E493A3C8C582C8CAC583CA0A
:10091400F0A3C8C582C8CAC583CADFE9DEE780BEC2
:0109FF0000F7
:00000001FF
