:100161001201C51201008F15E515B40105051753DC
:100171001703E5177002F514E517B401037514327E
:10018100E517B4020375144BE517B4030375146442
:09019100AD177F0112009A80CA2B
:03000B0002019A55
:10019A00C0E0C0F0C0D0758A66758CFC0516E516FD
:1001AA0075F0648485F016E516C395145004D29050
:0B01BA008002C290D0D0D0F0D0E03224
:1001C5005389F0438901758AA4758CA4C28DD28C9C
:0701D500D2A9D2AFC2B9228A
:0E01F1000C083F065B4F666D7D077F6F004078
:10009A00E4F580EF14B4080050549000B275F003F0
:1000AA00A4C58325F0C583730200CA0200CE0200EC
:1000BA00D20200D60200DA0200E20200EA0200F2EC
:1000CA00D2A4800ED2A48012D2A48016D2A4801AFE
:1000DA00C2A4D2A3D2A28016C2A4D2A3C2A2800E64
:1000EA00C2A4C2A3D2A28006C2A4C2A3C2A2740896
:0600FA002DF8E6F580225E
:10010000E4F51820B1137F14FE1201DC30B1FD7F3D
:10011000147E001201DC75180120B0147F147E00DB
:100120001201DC30B0FD7F147E001201DC75180274
:1001300020B2147F147E001201DC30B2FD7F147EE9
:10014000001201DC75180320B3147F147E00120125
:10015000DC30B3FD7F147E001201DC751804AF188B
:01016000227C
:1001DC00EF1FAC0670011E4C600A7D027CEFDCFE4A
:0401EC00DDFC80ECCA
:0101F00022EC
:0300000002000EED
:0C000E00787FE4F6D8FD758118020055DB
:10001A00020161E493A3F8E493A34003F68001F29A
:10002A0008DFF48029E493A3F85407240CC8C333E7
:10003A00C4540F4420C8834004F456800146F6DFB6
:10004A00E4800B01020408102040809001F1E47E54
:10005A00019360BCA3FF543F30E509541FFEE493AB
:10006A00A360010ECF54C025E060A840B8E493A372
:10007A00FAE493A3F8E493A3C8C582C8CAC583CA9D
:10008A00F0A3C8C582C8CAC583CADFE9DEE780BE55
:0101FF0000FF
:00000001FF
