:10017C00E4FD7F0112008F1200F28F14E51460F77A
:10018C007F647E00120153AD147F0112008F80E753
:10019C00EF1FAC0670011E4C600A7D027CEFDCFE8A
:0401AC00DDFC80EC0A
:0101B000222C
:1000F200E4F51520B1137F14FE12019C30B1FD7F8F
:10010200147E0012019C75150120B0147F147E002C
:1001120012019C30B0FD7F147E0012019C75150205
:1001220020B2147F147E0012019C30B2FD7F147E37
:100132000012019C75150320B3147F147E00120176
:100142009C30B3FD7F147E0012019C751504AF151F
:01015200228A
:0C01B1000A083F065B4F666D7D077F6FFC
:10008F00EF14B4080050549000A475F003A4C58376
:10009F0025F0C583730200BC0200C00200C4020039
:1000AF00C80200CC0200D40200DC0200E4D2A4801B
:1000BF000ED2A48012D2A48016D2A4801AC2A4D2C7
:1000CF00A3D2A28016C2A4D2A3C2A2800EC2A4C27F
:1000DF00A3D2A28006C2A4C2A3C2A274082DF8E6BE
:0300EF00F5802277
:0501BE00007FF7DFFEE9
:0101C3002219
:10015300AD07AC06E4F512F513ED25E0FFEC33FE35
:10016300C3E5139FE5129E500FB2A51201BE0513FE
:09017300E51370E5051280E1229C
:03000000020003F8
:0C000300787FE4F6D8FD75811502004AF4
:10000F0002017CE493A3F8E493A34003F68001F28A
:10001F0008DFF48029E493A3F85407240CC8C333F2
:10002F00C4540F4420C8834004F456800146F6DFC1
:10003F00E4800B01020408102040809001B1E47E9F
:10004F00019360BCA3FF543F30E509541FFEE493B6
:10005F00A360010ECF54C025E060A840B8E493A37D
:10006F00FAE493A3F8E493A3C8C582C8CAC583CAA8
:10007F00F0A3C8C582C8CAC583CADFE9DEE780BE60
:0101BD000041
:00000001FF
