:1009400020200020202D20202D20200020203A20B3
:05095000203A20200008
:100641001204C7E518FB7A00750C027D017F0112C7
:1006510008F6E519FB7A00750C027D047F0112088A
:10066100F6E51AFB7A00750C027D077F011208F688
:10067100E51BFB7A00750C027D017F021208F6E58D
:100681001CFB7A00750C027D047F021208F6E51D41
:0D069100FB7A00750C027D077F020208F65F
:10000E00E524B4020B0521E52175F0068485F02167
:10001E00E524640360030200CF74182521F806E579
:10002E0018D394634003E4F518E519D3940C4003F8
:10003E00751901E51964016023E5196403601DE576
:10004E001964056017E51964076011E51964086005
:10005E000BE519640A6005E519B40C09E51AD39489
:10006E001F4040803BE51964046011E51964066089
:10007E000BE51964096005E519B40B09E51AD3946B
:10008E001E4020801BE519B40219E51854037009AF
:10009E00E51AD3941D400C8007E51AD3941C400337
:1000AE00751A01E51BD394174003E4F51BE51CD329
:1000BE00943B4003E4F51CE51DD3943B4003E4F56B
:1000CE001DE524640460030201A974182521F816A5
:1000DE00E518C394005003751863E519C3940150D5
:1000EE000375190CE51964016023E5196403601D9D
:1000FE00E51964056017E51964076011E5196408D0
:10010E00600BE519640A6005E519B40C13E51AC312
:10011E0094015003751A1FE51AD3941F405F805A3D
:10012E00E51964046011E5196406600BE5196409AC
:10013E006005E519B40B13E51AC394015003751A43
:10014E001EE51AD3941E40358030E5196402702DD9
:10015E00E51854037013E51AC394015003751A1D64
:10016E00E51AD3941D40168011E51AC3940150036D
:10017E00751A1CE51AD3941C4003751A01E51BC3AE
:10018E0094005003751B17E51CC394005003751C97
:10019E003BE51DC394005003751D3BE5217014E52E
:1001AE0023B4010F7BFF7A0979407D017F0112088C
:1001BE00B5800FE518FB7A00750C027D017F0112E8
:1001CE0008F6E521B40114E523B4010F7BFF7A098B
:1001DE0079407D047F011208B5800FE519FB7A0086
:1001EE00750C027D047F011208F6E521B40214E5B8
:1001FE0023B4010F7BFF7A0979407D077F01120836
:10020E00B5800FE51AFB7A00750C027D077F01128F
:10021E0008F6E521B40314E523B4010F7BFF7A0938
:10022E0079407D017F021208B5800FE51BFB7A0035
:10023E00750C027D017F021208F6E521B40414E567
:10024E0023B4010F7BFF7A0979407D047F021208E7
:10025E00B5800FE51CFB7A00750C027D047F02123F
:10026E0008F6E521B40512E523B4010D7BFF7A09EA
:10027E0079407D077F020208B5E51DFB7A00750CFB
:09028E00027D077F021208F6222E
:1006FA0012096A1200031209137BFF7A0979437DF2
:10070A00017F011208B57BFF7A09794C7D017F02CE
:10071A001208B51202971205E08F24E524B40114D9
:10072A00E5227005752201800BE522B40106E4F585
:10073A0022120297E5221460080470DA1206418038
:06074A00D512000E80D064
:03000B000207D811
:0907D800C0E0C0D075D000C007DC
:1007E100758A18758CFC0520E5207002051FC394DD
:1007F100F4E51F94014012751F00752000E5237078
:09080100047F0180027F008F23B7
:07080A00D007D0D0D0E0328E
:06097E00C2A58F80D2A784
:080984007F027EEFDEFEDFFCC6
:01098C002248
:0A098D00C2A612097EC2A702098467
:1008D800CFCDCFCECCCE1204727C007D0A1204722A
:0408E800ED2430FFCC
:0A08EC00D2A612097EC2A7020984F9
:10092A00AE07BE0104ED148006BE0209ED243F4461
:06093A0080FF12098D226E
:10096A007F3812098D7F0C12098D7F0612098D7F3F
:04097A000102098DE0
:0A099700AC0312092AAF040208ECB9
:0608B5008B088A09890A84
:1008BB0012092AE4FDAB08AA09A90A8D82758300E7
:0C08CB00120433FF60061208EC0D80E9F7
:0108D70022FE
:0C0882007F0AEA24FFFDE434FFFC7E0046
:08088E008E0D8F0E8C0F8D10F2
:100896007F017E00E4FBEBC39510E50F6480F874DE
:0E08A6008098500AAC0DAD0E1204600B80E875
:0108B4002221
:0408F6008A0A8B0BD4
:1008FA0012092AAA0CEAD39400400D120882AC0A03
:08090A00AD0B1208D81A80EDB4
:0109120022C2
:10079E0012092AC3EA64809480400B7F2B1208EC66
:1007AE008A168B17800E7F2D1208ECC3E49BF5176B
:1007BE00E49AF516AA15EAD39400400D120882ACFD
:0907CE0016AD171208D81A80EDCF
:0107D70022FF
:040811008A278B287F
:1008150012092AAA29EAD3940040297F10120884D4
:10082500AC27AD28CFCDCFCECCCE120472EF540F6E
:10083500FEC3940AEE5004243080022437FF1208C8
:04084500EC1A80D158
:01084900228C
:04084A008A2C8B2D3C
:10084E0012092AAA2EEAD394004028EA24FFFDE4D6
:10085E0034FFFC7F027E0012088EAC2CAD2DCFCD66
:10086E00CFCECCCE120472EF54012430FF1208EC1E
:03087E001A80D20B
:010881002254
:0909A10007181803090C3337068E
:05000300C2B5C2B622E7
:05069E002DFDEE3CFC07
:0606A3008C088D09AB0775
:1006A900D2B5E4FD74017E00A805088005C333CEE8
:1006B90033CED8F9FFEBF582EF558224FF92B4D2FD
:1006C900B6C2B60DBD08DDE4FD74017E00A80508BB
:1006D9008005C333CE33CED8F9FFE5085EFEE509C0
:1006E9005F4E24FF92B4D2B6C2B60DBD08DBC2B5C7
:0106F90022DE
:02075000AD07F3
:10075200E4F9430501D2B5FB74017E00A8030880C9
:1007620005C333CE33CED8F9FFEDF582EF5582249F
:10077200FF92B4C2B6D2B60BBB08DDE4FBD2B6C25E
:10078200B630B40D7401A803088002C333D8FC420A
:0B079200010BBB08E8C2B5C2B4AF0108
:01079D002239
:10029700E4FDFC7F8E1206A3E51875F00A1204111F
:1002A700FF3395E0FEEFC4F8540FC868FFEEC4545F
:1002B700F048FEE51875F00A120411ADF0ED33951C
:1002C700E0FCEF7F8C12069EE51975F00A12041107
:1002D700FF3395E0FEEFC4F8540FC868FFEEC4542F
:1002E700F048FEE51975F00A120411ADF0ED3395EB
:1002F700E0FCEF7F8812069EE51A75F00A120411DA
:10030700FF3395E0FEEFC4F8540FC868FFEEC454FE
:10031700F048FEE51A75F00A120411ADF0ED3395B9
:10032700E0FCEF2DFDEE3CFC7F861206A3E51B7576
:10033700F00A120411FF3395E0FEEFC4F8540FC81A
:1003470068FFEEC454F048FEE51B75F00A1204116D
:10035700ADF0ED3395E0FCEF2DFDEE3CFC7F841214
:1003670006A3E51C75F00A120411FF3395E0FEEFB2
:10037700C4F8540FC868FFEEC454F048FEE51C7576
:10038700F00A120411ADF0ED3395E0FCEF2DFDEE10
:100397003CFC7F821206A3E51D75F00A120411FFCB
:1003A7003395E0FEEFC4F8540FC868FFEEC454F06D
:1003B70048FEE51D75F00A120411ADF0ED3395E026
:1003C700FCEF2DFDEE3CFC7F801206A3E51E75F0C9
:1003D7000A120411FF3395E0FEEFC4F8540FC86802
:1003E700FFEEC454F048FEE51E75F00A120411AD85
:1003F700F0ED3395E0FCEF2DFDEE3CFC7F8A120615
:0A040700A37D807C007F8E0206A317
:1004C7007F8C120750EFC4540F75F00AA4FEEF5447
:1004D7000F2EF5187F88120750EFC4540F75F00AD6
:1004E700A4FEEF540F2EF5197F86120750EFC45460
:1004F7000F75F00AA4FEEF540F2EF51A7F8412072A
:1005070050EFC4540F75F00AA4FEEF540F2EF51BDD
:100517007F82120750EFC4540F75F00AA4FEEF5400
:100527000F2EF51C7F80120750EFC4540F75F00A89
:10053700A4FEEF540F2EF51D7F8A120750EFC45407
:0C0547000F75F00AA4FEEF540F2EF51EF5
:010553002285
:10095500EF1FAC0670011E4C600A7D027CEFDCFEC9
:04096500DDFC80EC49
:01096900226B
:100913005389F0438901758A18758CFCC28DD28C7A
:07092300D2A9D2AFC2B92234
:1005E000E4F50820B1137F14FE12095530B1FD7FE8
:1005F000147E0012095575080120B0147F147E0086
:1006000012095530B0FD7F147E001209557508029D
:1006100020B2147F147E0012095530B2FD7F147E83
:100620000012095575080320B3147F147E001209C7
:100630005530B3FD7F147E00120955750804AF08CC
:010640002297
:03000000020554A2
:0C055400787FE4F6D8FD75812E02059B2F
:10041100C2D530F707B2D563F0FF05F030E70CB273
:10042100D5F4048463F0FF05F080018430D502F433
:020431000422A3
:10043300BB010CE58229F582E5833AF583E022507E
:1004430006E92582F8E622BBFE06E92582F8E222C8
:0D045300E58229F582E5833AF583E49322E2
:10046000EF8DF0A4A8F0CF8CF0A428CE8DF0A42EB0
:02047000FE226A
:10047200BC000BBE0029EF8DF084FFADF022E4CC6E
:10048200F875F008EF2FFFEE33FEEC33FCEE9DEC37
:10049200984005FCEE9DFE0FD5F0E9E4CEFD22ED7D
:1004A200F8F5F0EE8420D21CFEADF075F008EF2FC7
:1004B200FFED33FD4007985006D5F0F222C398FDB8
:0504C2000FD5F0EA2255
:100560000206FAE493A3F8E493A34003F68001F2B1
:1005700008DFF48029E493A3F85407240CC8C3339C
:10058000C4540F4420C8834004F456800146F6DF6B
:10059000E4800B01020408102040809009A1E47E51
:1005A000019360BCA3FF543F30E509541FFEE49360
:1005B000A360010ECF54C025E060A840B8E493A327
:1005C000FAE493A3F8E493A3C8C582C8CAC583CA52
:1005D000F0A3C8C582C8CAC583CADFE9DEE780BE0A
:0109AA00004C
:00000001FF
