:10047D00414444522020434D4420204E554D0030E0
:0E048D00302020202030302020203030300061
:100307001205017BFF7A04797D7D017F0112045A72
:100317007BFF7A04798C7D017F0212045A12058DC6
:10032700120534EF7006120541EF60F41205997556
:100337002B008F2C12059E8F2A751802AB2CAA2B27
:100347007D017F021203B6E52AFB7A007518027D4C
:10035700077F021203B6E52AB415021529E52AB468
:1003670009020529E529FB7A007518037D0C7F0230
:050377001204B980AB87
:06052500C2A58F80D2A7E1
:08052B007F027EEFDEFEDFFC23
:0105330022A5
:0A057000C2A6120525C2A702052B42
:10049B00CFCDCFCECCCE1202A47C007D0A1202A40B
:0404AB00ED2430FF0D
:0A04AF00D2A6120525C2A702052BF4
:1004D600AE07BE0104ED148006BE0209ED243F44BA
:0604E60080FF12057022E8
:100501007F381205707F0C1205707F061205707F0F
:04051100010205706E
:0A057A00AC031204D6AF040204AF74
:06045A008B148A158916BF
:100460001204D6E4FDAB14AA15A9168D827583007B
:0C047000120265FF60061204AF0D80E967
:01047C00225D
:0C0427007F0AEA24FFFDE434FFFC7E00A5
:080433008E198F1A8C1B8D1C21
:10043B007F017E00E4FBEBC3951CE51B6480F87425
:0E044B008098500AAC19AD1A1202920B80E88C
:010459002280
:0404B9008A168B17FD
:1004BD001204D6AA18EAD39400400D120427AC16E4
:0804CD00AD1712049B1A80ED2B
:0104D5002204
:10037C001204D6C3EA64809480400B7F2B1204AF26
:10038C008A228B23800E7F2D1204AFC3E49BF523AE
:10039C00E49AF522AA21EAD39400400D120427AC6A
:0903AC0022AD2312049B1A80ED1E
:0103B5002225
:0403B6008A168B1701
:1003BA001204D6AA18EAD3940040297F10120429FD
:1003CA00AC16AD17CFCDCFCECCCE1202A4EF540FC0
:1003DA00FEC3940AEE5004243080022437FF12042C
:0403EA00AF1A80D1F5
:0103EE0022EC
:0403EF008A268B27A8
:1003F3001204D6AA28EAD394004028EA24FFFDE495
:1004030034FFFC7F027E00120433AC26AD27CFCD30
:10041300CFCECCCE1202A4EF54012430FF1204AF8E
:030423001A80D26A
:0104260022B3
:1004EC00EF1FAC0670011E4C600A7D027CEFDCFE37
:0404FC00DDFC80ECB7
:0105000022D8
:0B055A00D288C289D2A8D2AFD2B8224A
:06058D0012051502055ADB
:0D053400E50F6006E4F50F7F01227F002235
:0D054100E50D6006E4F50D7F01227F00222C
:05059900AF0C7E002202
:03059E00AF0B227E
:03000300020006F2
:10000600C0E0C0F0C083C082C0D075D000C000C0C0
:1000160001C002C003C004C005C006C007E50870E1
:100026000CFFFE1205657F011205938077E50864D3
:100036000170771205848E098F0AE4FFFE120565AA
:10004600AC09AD0AE412022C7B447A36793B784639
:100056001201AE501DAC09AD0AE412022C7BE77A00
:100066009C794978461201AE60084006750802027E
:100076000193AC09AD0AE412022C7B567ACF791AA9
:1000860078461201AE501DAC09AD0AE412022C7B73
:10009600F97A35792978461201AE60084006750D61
:1000A6000102018B750801020193E50864026003F1
:1000B6000201931205848E098F0AE4FFFE1205657C
:1000C600AC09AD0AE412022C7B6D7ADB790E78441A
:1000D6001201AE5039AC09AD0AE412022C7BCD7A7E
:1000E600A279BA78441201AE60244022E50E1313B9
:1000F60013541F2410F8C000E6FFE50E5407FE74E3
:1001060001A806088002C333D8FCF45F804BAC0913
:10011600AD0AE412022C7BE77A9C79C97844120175
:10012600AE503DAC09AD0AE412022C7BFE7A68792A
:100136001E78451201AE60284026E50E13131354AF
:100146001F2410F8C000E6FFE50E5407FE7401A850
:1001560006088002C333D8FC4FD000F6050E800691
:10016600750E00750801E50EC394204020750E003B
:10017600E511F4B5100FE513F4B5120985100C85D9
:10018600120B750F01E4FF120593750800D007D016
:1001960006D005D004D003D002D001D000D0D0D0F4
:0801A60082D083D0F0D0E032DA
:100515005389F0438901E4F58AF58CC28DD28C228A
:0B056500AD07AC068C8CAF058F8A221E
:09058400AF8CEFFEAD8AEDFF2201
:06059300EF24FF928C2210
:1001AE0074F8CC6480CCC86480C8F58204604FC3F8
:1001BE00EB9FF5F0EA9E42F0E99D42F0E89C45F097
:1001CE00603C501DE5825FFFE582D313CB5BCBF421
:1001DE002B5582FB50280ABA002409B9002008804A
:1001EE001DE5825BFBE582D313CF5FCFF4C3132FE4
:1001FE005582FF50090EBE00050DBD00010CC3EB6C
:10020E009FF5F0EA9E42F0E99D42F0E89C45F060D1
:09021E0007CC4820E701B3EC22F3
:1002270075F020800E75F010800575F0087D007E52
:10023700007F003392D530D5031202F9EC3340101A
:10024700EF33FFEE33FEED33FDEC33FCD5F0ED225B
:0E025700E5F0247EA2D513CC92E7CDCEFF2297
:0300000002054EA8
:0C054E00787FE4F6D8FD75812C020307CD
:10026500BB010CE58229F582E5833AF583E022504E
:1002750006E92582F8E622BBFE06E92582F8E22298
:0D028500E58229F582E5833AF583E49322B2
:10029200EF8DF0A4A8F0CF8CF0A428CE8DF0A42E80
:0202A200FE223A
:1002A400BC000BBE0029EF8DF084FFADF022E4CC3E
:1002B400F875F008EF2FFFEE33FEEC33FCEE9DEC07
:1002C400984005FCEE9DFE0FD5F0E9E4CEFD22ED4D
:1002D400F8F5F0EE8420D21CFEADF075F008EF2F97
:1002E400FFED33FD4007985006D5F0F222C398FD88
:0502F4000FD5F0EA2225
:0E02F900C3E49FFFE49EFEE49DFDE49CFC2216
:00000001FF
