:1000970054686572652077652074776F2C20636FCD
:1000A7006E74656E742C20686170707920696E209B
:1000B7006265696E6720746F6765746865722C7313
:1000C7007065616B696E67206C6974746C652C2050
:1000D70070657268617073206E6F74206120776F2E
:1000E70072642E0020202020202020202020202085
:1000F70020202D2D2D544F206D79206265626500DB
:1001E80012029D7BFF7A0079977D017F011202132D
:1001F8007BFF7A0079EB7D017F021202137F1812D0
:0B02080002CC7FF47E0112028880F21D
:0602B100C2A58F80D2A758
:0802B7007F027EEFDEFEDFFC9A
:0102BF00221C
:0A02CC00C2A61202B1C2A70202B7D7
:10023600CFCDCFCECCCE1200427C007D0A1200423A
:04024600ED2430FF74
:0A024A00D2A61202B1C2A70202B749
:10029D007F381202CC7F0C1202CC7F061202CC7F6B
:0402AD00010202CC7C
:10027100AE07BE0106ED1444808007BE0208ED14EE
:0702810044C0FF1202CC2271
:0A02D600AC03120271AF0402024AE9
:060213008B228A238924DE
:10021900120271E4FDAB22AA23A9248D8275830001
:0C022900120003FF600612024A0D80E97B
:0102350022A6
:0C01B5007F0AEA24FFFDE434FFFC7E001A
:0801C1008E1E8F1F8C208D2182
:1001C9007F017E00E4FBEBC39521E5206480F87490
:0E01D9008098500AAC1EAD1F1200300B80E85B
:0101E70022F5
:040254008A118B126E
:10025800120271AA13EAD39400400D1201B5AC1131
:08026800AD121202361A80EDFE
:01027000226B
:10010700120271D3EB9400EA64809480400B7F2B3A
:1001170012024A8A0D8B0E800E7F2D12024AC3E40B
:100127009BF50EE49AF50DAA0CEAD39400400D1244
:0C01370001B5AC0DAD0E1202361A80EDC1
:010143002299
:040144008A168B1775
:10014800120271AA18EAD3940040297F101201B74D
:10015800AC16AD17CFCDCFCECCCE120042EF540F98
:10016800FEC3940AEE5004243080022437FF1202A2
:040178004A1A80D1CE
:01017C002260
:04017D008A1B8B1C32
:10018100120271AA1DEAD394004028EA24FFFDE47B
:1001910034FFFC7F027E001201C1AC1BAD1CCFCD30
:1001A100CFCECCCE120042EF54012430FF12024ACE
:0301B1001A80D2DF
:0101B4002228
:10028800EF1FAC0670011E4C600A7D027CEFDCFE9D
:04029800DDFC80EC1D
:01029C00223F
:030000000202C039
:0C02C000787FE4F6D8FD7581240201E887
:10000300BB010CE58229F582E5833AF583E02250B2
:1000130006E92582F8E622BBFE06E92582F8E222FC
:0D002300E58229F582E5833AF583E4932216
:10003000EF8DF0A4A8F0CF8CF0A428CE8DF0A42EE4
:02004000FE229E
:10004200BC000BBE0029EF8DF084FFADF022E4CCA2
:10005200F875F008EF2FFFEE33FEEC33FCEE9DEC6B
:10006200984005FCEE9DFE0FD5F0E9E4CEFD22EDB1
:10007200F8F5F0EE8420D21CFEADF075F008EF2FFB
:10008200FFED33FD4007985006D5F0F222C398FDEC
:050092000FD5F0EA2289
:00000001FF
