:100AC1006265626500695F6D697373006D795F626C
:040AD10065626500F5
:040B0C0002250000BE
:10092000120AD57BFF7A0A79C17D017F01120A384C
:100930007FE87E03120AAC7BFF7A0A79C67D017FCD
:1009400001120A387FE87E03120AAC7BFF7A0A792B
:0A095000CD7D017F01120A3880C935
:060AE900C2A58F80D2A718
:080AEF007F027EEFDEFEDFFC5A
:010AF70022DC
:0A0AF800C2A6120AE9C2A7020AEF23
:100A5B00CFCDCFCECCCE12083F7C007D0A12083F03
:040A6B00ED2430FF47
:0A0A6F00D2A6120AE9C2A7020AEF9C
:100A9600AE07BE0104ED148006BE0209ED243F44F4
:060AA60080FF120AF82295
:100AD5007F38120AF87F0C120AF87F06120AF87F8F
:040AE50001020AF808
:0A0B0200AC03120A96AF04020A6F5A
:060A38008B228A238924B1
:100A3E00120A96E4FDAB22AA23A9248D82758300A7
:0C0A4E00120800FF6006120A6F0D80E91C
:010A5A002279
:0C0A05007F0AEA24FFFDE434FFFC7E00C1
:080A11008E1E8F1F8C208D2129
:100A19007F017E00E4FBEBC39521E5206480F87437
:0E0A29008098500AAC1EAD1F12082D0B80E8FD
:010A3700229C
:040A79008A118B1241
:100A7D00120A96AA13EAD39400400D120A05AC117E
:080A8D00AD12120A5B1A80EDA4
:010A9500223E
:10095A00120A96C3EA64809480400B7F2B120A6FB6
:10096A008A0D8B0E800E7F2D120A6FC3E49BF50E43
:10097A00E49AF50DAA0CEAD39400400D120A05ACCC
:09098A000DAD0E120A5B1A80ED9E
:010993002241
:040994008A168B171D
:10099800120A96AA18EAD3940040297F10120A076F
:1009A800AC16AD17CFCDCFCECCCE12083FEF540F3B
:1009B800FEC3940AEE5004243080022437FF120A42
:0409C8006F1A80D151
:0109CC002208
:0409CD008A1B8B1CDA
:1009D100120A96AA1DEAD394004028EA24FFFDE4F6
:1009E10034FFFC7F027E00120A11AC1BAD1CCFCD7F
:1009F100CFCECCCE12083FEF54012430FF120A6F44
:030A01001A80D286
:010A040022CF
:100AAC00EF1FAC0670011E4C600A7D027CEFDCFE71
:040ABC00DDFC80ECF1
:010AC0002213
:030000000208945F
:0C089400787FE4F6D8FD7581260208DBB1
:10080000BB010CE58229F582E5833AF583E02250AD
:1008100006E92582F8E622BBFE06E92582F8E222F7
:0D082000E58229F582E5833AF583E4932211
:10082D00EF8DF0A4A8F0CF8CF0A428CE8DF0A42EDF
:02083D00FE2299
:10083F00BC000BBE0029EF8DF084FFADF022E4CC9D
:10084F00F875F008EF2FFFEE33FEEC33FCEE9DEC66
:10085F00984005FCEE9DFE0FD5F0E9E4CEFD22EDAC
:10086F00F8F5F0EE8420D21CFEADF075F008EF2FF6
:10087F00FFED33FD4007985006D5F0F222C398FDE7
:05088F000FD5F0EA2284
:1008A000020920E493A3F8E493A34003F68001F245
:1008B00008DFF48029E493A3F85407240CC8C33359
:1008C000C4540F4420C8834004F456800146F6DF28
:1008D000E4800B0102040810204080900B0CE47EA1
:1008E000019360BCA3FF543F30E509541FFEE4931D
:1008F000A360010ECF54C025E060A840B8E493A3E4
:10090000FAE493A3F8E493A3C8C582C8CAC583CA0E
:10091000F0A3C8C582C8CAC583CADFE9DEE780BEC6
:010B100000E4
:00000001FF
