:1003DE001204EC1204DE12049FEF60251204E98F62
:1003EE0020E520B41603E4F521E520B40C037521B5
:1003FE0001E520B41803752102E520B45E037521D2
:10040E0003E5217004FF1204EFE521B401057F32EC
:10041E001204EFE521B402057F4B1204EFE521B47F
:10042E0003057F641204EFAD217F0112031780A62E
:0E0490000C083F065B4F666D7D077F6F0040D6
:10031700E4F580EF14B40800505490032F75F003F0
:10032700A4C58325F0C5837302034702034B020369
:100337004F02035302035702035F02036702036F6F
:10034700D2A4800ED2A48012D2A48016D2A4801A7E
:10035700C2A4D2A3D2A28016C2A4D2A3C2A2800EE4
:10036700C2A4C2A3D2A28006C2A4C2A3C2A2740816
:060377002DF8E6F58022DE
:10037D00E4F52420B1137F14FE12000630B1FD7F89
:10038D00147E0012000675240120B0147F147E0027
:10039D0012000630B0FD7F147E0012000675240297
:1003AD0020B2147F147E0012000630B2FD7F147E41
:1003BD000012000675240320B3147F147E00120072
:1003CD000630B3FD7F147E00120006752404AF24A1
:0103DD0022FD
:10000600EF1FAC0670011E4C600A7D027CEFDCFE21
:04001600DDFC80ECA1
:01001A0022C3
:1004690053890F438910758BAA758DAAC28FD28EB5
:07047900D2ABD2AFC2BB22DF
:100480005389F0438901E4F58AF58CC28DC28C2230
:0B04B900AD07AC068C8CAF058F8A22CB
:0904CF00AF8CEFFEAD8AEDFF22B7
:0604D800EF24FF928C22CC
:0604DE001204800204C4B8
:0D049F00E51B6006E4F51B7F01227F0022B3
:0D04AC00E5196006E4F5197F01227F0022AA
:0504E400AF187E0022AC
:0304E900AF172228
:0300030002001EDA
:10001E00C0E0C0F0C083C082C0D075D000C000C0A8
:10002E0001C002C003C004C005C006C007E51470BD
:10003E000CFFFE1204B97F011204D88077E5146418
:10004E000170771204CF8E158F16E4FFFE1204B9DD
:10005E00AC15AD16E41202447B447A36793B7846F1
:10006E001201C6501DAC15AD16E41202447BE77AA0
:10007E009C794978461201C6600840067514020242
:10008E0001ABAC15AD16E41202447B567ACF791A49
:10009E0078461201C6501DAC15AD16E41202447B13
:1000AE00F97A35792978461201C660084006751925
:1000BE00010201A37514010201ABE5146402600391
:1000CE000201AB1204CF8E158F16E4FFFE1204B997
:1000DE00AC15AD16E41202447B6D7ADB790E7844D2
:1000EE001201C65039AC15AD16E41202447BCD7A1E
:1000FE00A279BA78441201C660244022E51A13137D
:10010E0013541F241CF8C000E6FFE51A5407FE74B2
:10011E0001A806088002C333D8FCF45F804BAC15EF
:10012E00AD16E41202447BE77A9C79C97844120139
:10013E00C6503DAC15AD16E41202447BFE7A6879CA
:10014E001E78451201C660284026E51A1313135473
:10015E001F241CF8C000E6FFE51A5407FE7401A820
:10016E0006088002C333D8FC4FD000F6051A80066D
:10017E00751A00751401E51AC394204020751A00F3
:10018E00E51DF4B51C0FE51FF4B51E09851C188579
:10019E001E17751B01E4FF1204D8751400D007D08A
:1001AE0006D005D004D003D002D001D000D0D0D0DC
:0801BE0082D083D0F0D0E032C2
:0B04C400D288C289D2A8D2AFD2B822E1
:0304EC000204699E
:0304EF008F222237
:03001B0002043E9E
:10043E00C0E0C0F0C0D0758B66758DFC0523E5233A
:10044E0075F0648485F023E523C395225004D29081
:0B045E008002C290D0D0D0F0D0E0327D
:1001C60074F8CC6480CCC86480C8F58204604FC3E0
:1001D600EB9FF5F0EA9E42F0E99D42F0E89C45F07F
:1001E600603C501DE5825FFFE582D313CB5BCBF409
:1001F6002B5582FB50280ABA002409B90020088032
:100206001DE5825BFBE582D313CF5FCFF4C3132FCB
:100216005582FF50090EBE00050DBD00010CC3EB53
:100226009FF5F0EA9E42F0E99D42F0E89C45F060B9
:0902360007CC4820E701B3EC22DB
:10023F0075F020800E75F010800575F0087D007E3A
:10024F00007F003392D530D50312027DEC3340107E
:10025F00EF33FFEE33FEED33FDEC33FCD5F0ED2243
:0E026F00E5F0247EA2D513CC92E7CDCEFF227F
:0300000002028B6E
:0C028B00787FE4F6D8FD7581240202D2D1
:0E027D00C3E49FFFE49EFEE49DFDE49CFC2292
:100297000203DEE493A3F8E493A34003F68001F29C
:1002A70008DFF48029E493A3F85407240CC8C33368
:1002B700C4540F4420C8834004F456800146F6DF37
:1002C700E4800B0102040810204080900490E47E33
:1002D700019360BCA3FF543F30E509541FFEE4932C
:1002E700A360010ECF54C025E060A840B8E493A3F3
:1002F700FAE493A3F8E493A3C8C582C8CAC583CA1E
:10030700F0A3C8C582C8CAC583CADFE9DEE780BED5
:01049E00005D
:00000001FF
