:10000E001203A212040C8F28E528B4010CE5277008
:10001E00047F0180027F008F27E528B40207E4F5F4
:10002E0025F524F526E52864037033E525FD7C00CF
:10003E00E4FF12032D7F057E001203CFE524FD7C25
:10004E00007F0112032D7F057E001203CFE526FDF2
:10005E007C007F0212032D7F057E001203CFE52860
:10006E00B40415E4FF1202AC8F257F011202AC8F8F
:10007E00247F021202AC8F26E52575F00A84FD7CE2
:10008E00007F011203FAE52575F00A84E5F0FD7C88
:10009E00007F021203FA7D0B7C007F031203FAE548
:1000AE002475F00A84FD7C007F041203FAE52475A2
:1000BE00F00A84E5F0FD7C007F051203FA7D0B7CCF
:1000CE00007F061203FAE52675F00A84FD7C007F98
:1000DE00071203FAE52675F00A84E5F0FD7C007F31
:0700EE00081203FA020011E1
:10030500E52760230526E526C39464401AE4F5260F
:100315000524E524943C400FE4F5240525E525D383
:08032500943C4003E4F525229D
:03000B000200F5FB
:1000F500C0E0C0F0C083C082C0D075D000C000C0D1
:0D01050001C002C003C004C005C006C00751
:10011200758A18758CFC051FE51F7002051EC394B5
:1001220014E51E94004009751E00751F001202732B
:100132000521E52170020520C39402E520940040C8
:10014200097520007521001203890523E523700239
:100152000522C3940AE52294004009752200752302
:04016200001203057F
:10016600D007D006D005D004D003D002D001D000ED
:0B017600D0D0D082D083D0F0D0E03297
:1003A2005389F0438901758A18758CFCC28DD28CF1
:0703B200D2A9D2AFC2B922AB
:10036F000909000A0A0A0A0A0A0A0A0C123F065B5E
:09037F004F666D7D077F6F0040A1
:0903FA00AE0574092FF8A60622D5
:10020D00E4F580EF14B40800505490022575F00306
:10021D00A4C58325F0C5837302023D02024102028B
:10022D004502024902024D02025502025D020265BB
:10023D00D2A4800ED2A48012D2A48016D2A4801A89
:10024D00C2A4D2A3D2A28016C2A4D2A3C2A2800EEF
:10025D00C2A4C2A3D2A28006C2A4C2A3C2A2741217
:06026D002DF8E6F58022E9
:1003890074092508F8E6FDAF0812020D0508E5080D
:08039900D3940940037508012B
:0103A1002239
:05040C00AF2BE4F52B0D
:0104110022C8
:1003B900E4FF20B1010F20B0027F0220B2027F03C7
:0503C90020B3027F04D7
:0103CE00220C
:1002730085292A1203B98F29E52AB40107E52970D4
:1002830003752B01E52AB40207E5297003752B02D8
:10029300E52AB40307E5297003752B03E52AB404A3
:0802A30007E5297003752B0427
:0102AB002230
:1003CF00EF1FAC0670011E4C600A7D027CEFDCFE55
:0403DF00DDFC80ECD5
:0103E30022F7
:09040300D2A0D2A1C2A0C2A12224
:07000300C2A0D2A1D2A0228D
:0202DC00AD076C
:1002DE00E4FB74807E00A803088006CEA2E713CE4E
:1002EE0013D8F8FFEDF582EF558224FF92A0D2A12C
:0602FE00C2A10BBB08DCED
:0103040022D6
:10035100E4FFD2A0FED2A130A00D7480A8060880CF
:0D03610002C313D8FC4207C2A10EBE08E87B
:01036E00226C
:0A03F000EF24FF92A0D2A1C2A122C7
:0B03E400D2A0D2A1A2A0E433FFC2A16E
:0103EF0022EB
:10032D008F2C8C2D8D2E1204037FA01202DC120354
:10033D00E4AF2C1202DC1203E4AF2E1202DC120326
:04034D00E4020003C3
:0202AC008F2C95
:1002AE001204037FA01202DC1203E4AF2C1202DC54
:1002BE001203E41204037FA11202DC1203E4120300
:0D02CE00518F2D7F011203F0120003AF2DA0
:0102DB002200
:0300000002018179
:0C018100787FE4F6D8FD75812E0201C8DD
:10018D0002000EE493A3F8E493A34003F68001F27A
:10019D0008DFF48029E493A3F85407240CC8C33373
:1001AD00C4540F4420C8834004F456800146F6DF42
:1001BD00E4800B010204081020408090036FE47E60
:1001CD00019360BCA3FF543F30E509541FFEE49337
:1001DD00A360010ECF54C025E060A840B8E493A3FE
:1001ED00FAE493A3F8E493A3C8C582C8CAC583CA29
:1001FD00F0A3C8C582C8CAC583CADFE9DEE780BEE1
:010388000074
:00000001FF
