:0308D30001080019
:1008B80012088CAF081208CB05087FF47E011208D5
:0308C800A380F01A
:1008A300EF1FAC0670011E4C600A7D027CEFDCFE7C
:0408B300DDFC80ECFC
:0108B700221E
:10088C0053878075984053890F438920758BFD756C
:07089C008DFDC2ABD28E22DC
:0808CB008F993099FDC29922BA
:03000000020800F3
:0C080000787FE4F6D8FD758108020847F7
:10080C000208B8E493A3F8E493A34003F68001F242
:10081C0008DFF48029E493A3F85407240CC8C333ED
:10082C00C4540F4420C8834004F456800146F6DFBC
:10083C00E4800B01020408102040809008D3E47E71
:10084C00019360BCA3FF543F30E509541FFEE493B1
:10085C00A360010ECF54C025E060A840B8E493A378
:10086C00FAE493A3F8E493A3C8C582C8CAC583CAA3
:10087C00F0A3C8C582C8CAC583CADFE9DEE780BE5B
:0108D6000021
:00000001FF
