:100161001201BDE4F5168516147F327E001201D40A
:100171000516E516C3946440ED751664E516D3942F
:100181000040E08516147F327E001201D4151680DE
:01019100EB82
:03000B000201925D
:10019200C0E0C0F0C0D0758A66758CFC0515E51507
:1001A20075F0648485F015E515C395145004D2A149
:0B01B2008002C2A1D0D0D0F0D0E0321B
:1001BD005389F0438901758AA4758CA4C28DD28CA4
:0701CD00D2A9D2AFC2B92292
:0E01E9000C083F065B4F666D7D077F6F004080
:10009A00E4F580EF14B4080050549000B275F003F0
:1000AA00A4C58325F0C583730200CA0200CE0200EC
:1000BA00D20200D60200DA0200E20200EA0200F2EC
:1000CA00D2A4800ED2A48012D2A48016D2A4801AFE
:1000DA00C2A4D2A3D2A28016C2A4D2A3C2A2800E64
:1000EA00C2A4C2A3D2A28006C2A4C2A3C2A2740896
:0600FA002DF8E6F580225E
:10010000E4F51720B1137F14FE1201D430B1FD7F46
:10011000147E001201D475170120B0147F147E00E4
:100120001201D430B0FD7F147E001201D475170285
:1001300020B2147F147E001201D430B2FD7F147EF1
:10014000001201D475170320B3147F147E0012012E
:10015000D430B3FD7F147E001201D4751704AF179D
:01016000227C
:1001D400EF1FAC0670011E4C600A7D027CEFDCFE52
:0401E400DDFC80ECD2
:0101E80022F4
:0300000002000EED
:0C000E00787FE4F6D8FD758117020055DC
:10001A00020161E493A3F8E493A34003F68001F29A
:10002A0008DFF48029E493A3F85407240CC8C333E7
:10003A00C4540F4420C8834004F456800146F6DFB6
:10004A00E4800B01020408102040809001E9E47E5C
:10005A00019360BCA3FF543F30E509541FFEE493AB
:10006A00A360010ECF54C025E060A840B8E493A372
:10007A00FAE493A3F8E493A3C8C582C8CAC583CA9D
:10008A00F0A3C8C582C8CAC583CADFE9DEE780BE55
:0101F7000007
:00000001FF
