:03091000010800DB
:05090B001208D380FE7C
:0300230002088C44
:10088C00C0E0C0F0C083C082C0D075D000C000C032
:10089C0001C002C003C004C005C006C00730980CDC
:1008AC00E599F4F5A0AF99120903C298D007D006C8
:1008BC00D005D004D003D002D001D000D0D0D0824B
:0708CC00D083D0F0D0E03230
:1008D30053878075985053890F438920758BFD7515
:0B08E3008DFDC2ABD28ED2AFD2AC2292
:080903008F993099FDC2992281
:1008EE00EF1FAC0670011E4C600A7D027CEFDCFE31
:0408FE00DDFC80ECB1
:0109020022D2
:03000000020800F3
:0C080000787FE4F6D8FD758108020847F7
:10080C0002090BE493A3F8E493A34003F68001F2EE
:10081C0008DFF48029E493A3F85407240CC8C333ED
:10082C00C4540F4420C8834004F456800146F6DFBC
:10083C00E4800B0102040810204080900910E47E33
:10084C00019360BCA3FF543F30E509541FFEE493B1
:10085C00A360010ECF54C025E060A840B8E493A378
:10086C00FAE493A3F8E493A3C8C582C8CAC583CAA3
:10087C00F0A3C8C582C8CAC583CADFE9DEE780BE5B
:0109130000E3
:00000001FF
