:10030E005772697465204F4B00202020202020203A
:10031E00200052656164204F4B00202020202020B9
:04032E00202020006B
:100003001203FD750C05AB23AA227D017F011203A8
:10001300B51201768F24E524B401150523E5237079
:10002300020522750C05FBAA227D017F011203B58F
:10003300E524B40216E523152370021522750C0579
:10004300AB23AA227D017F011203B5E5246403706B
:1000530040FCAD23FF1203327F057E001203E8E567
:1000630022FD7C007F011203327F057E001203E82C
:100073007BFF7A03790E7D017F021203567FE87EB0
:10008300031203E87BFF7A0379177D017F021203D2
:1000930056E52464046003020014FF1202B57522BE
:1000A300008F237F011202B5EF752300F522750C33
:1000B30005AB23FA7D017F011203B57BFF7A037938
:1000C300207D017F021203567FE87E031203E87B43
:0F00D300FF7A0379287D017F0212035602001481
:1003E800EF1FAC0670011E4C600A7D027CEFDCFE3C
:0403F800DDFC80ECBC
:0103FC0022DE
:06041100C2A58F80D2A7F6
:080417007F027EEFDEFEDFFC38
:01041F0022BA
:0A043800C2A6120411C2A7020417A5
:10037900CFCDCFCECCCE1201217C007D0A12012136
:04038900ED2430FF30
:0A038D00D2A6120411C2A702041741
:1003D200AE07BE0104ED148006BE0209ED243F44BF
:0603E20080FF1204382226
:1003FD007F381204387F0C1204387F061204387FC0
:04040D0001020438AC
:0A044200AC031203D2AF0402038DD5
:060356008B088A09890AE8
:10035C001203D2E4FDAB08AA09A90A8D82758300A9
:0C036C001200E2FF600612038D0D80E914
:010378002262
:0C0282007F0AEA24FFFDE434FFFC7E004C
:08028E008E0D8F0E8C0F8D10F8
:100296007F017E00E4FBEBC39510E50F6480F874E4
:0E02A6008098500AAC0DAD0E12010F0B80E8CF
:0102B4002227
:0403B5008A0A8B0B1A
:1003B9001203D2AA0CEAD39400400D120282AC0AAD
:0803C900AD0B1203791A80ED5F
:0103D1002209
:1001D7001203D2C3EA64809480400B7F2B12038DF5
:1001E7008A168B17800E7F2D12038DC3E49BF5179C
:1001F700E49AF516AA15EAD39400400D120282ACD0
:0902070016AD171203791A80EDFF
:0102100022CB
:040211008A1A8B1B9F
:100215001203D2AA1CEAD3940040297F101202844B
:10022500AC1AAD1BCFCDCFCECCCE120121EF540FE2
:10023500FEC3940AEE5004243080022437FF1203D3
:040245008D1A80D1BD
:010249002292
:04024A008A1F8B205C
:10024E001203D2AA21EAD394004028EA24FFFDE447
:10025E0034FFFC7F027E0012028EAC1FAD20CFCD8C
:10026E00CFCECCCE120121EF54012430FF12038DDC
:03027E001A80D211
:01028100225A
:10017600E4F50820B1137F14FE1203E830B1FD7FC9
:10018600147E001203E875080120B0147F147E0067
:100196001203E830B0FD7F147E001203E8750802F2
:1001A60020B2147F147E001203E830B2FD7F147E65
:1001B600001203E875080320B3147F147E001203AF
:1001C600E830B3FD7F147E001203E8750804AF081B
:0101D6002206
:09045600D2A0D2A1C2A0C2A122D1
:07045F00C2A0D2A1D2A0222D
:0202E500AD0763
:1002E700E4FB74807E00A803088006CEA2E713CE45
:1002F70013D8F8FFEDF582EF558224FF92A0D2A123
:06030700C2A10BBB08DCE3
:01030D0022CD
:10039700E4FFD2A0FED2A130A00D7480A806088089
:0D03A70002C313D8FC4207C2A10EBE08E835
:0103B4002226
:0A044C00EF24FF92A0D2A1C2A1226A
:0B042000D2A0D2A1A2A0E433FFC2A131
:01042B0022AE
:100332008F088C098D0A1204567FA01202E512045E
:1003420020AF081202E5120420AF0A1202E51204DD
:040352002002045F22
:0202B5008F08B0
:1002B7001204567FA01202E5120420AF081202E5CD
:1002C7001204201204567FA11202E5120420120321
:0D02D700978F097F0112044C12045FAF09DC
:0102E40022F7
:0300000002042CCB
:0C042C00787FE4F6D8FD758124020003FF
:1000E200BB010CE58229F582E5833AF583E02250D3
:1000F20006E92582F8E622BBFE06E92582F8E2221D
:0D010200E58229F582E5833AF583E4932236
:10010F00EF8DF0A4A8F0CF8CF0A428CE8DF0A42E04
:02011F00FE22BE
:10012100BC000BBE0029EF8DF084FFADF022E4CCC2
:10013100F875F008EF2FFFEE33FEEC33FCEE9DEC8B
:10014100984005FCEE9DFE0FD5F0E9E4CEFD22EDD1
:10015100F8F5F0EE8420D21CFEADF075F008EF2F1B
:10016100FFED33FD4007985006D5F0F222C398FD0C
:050171000FD5F0EA22A9
:00000001FF
